{
  "hex": "0200000000010583fd136d03a9483695a252222fb2d0cb73ba8c76793ad5f876c375f58aa300920600000000ffffffff5a0e44799e3256044c7f4a89ed2c0d1e1e4341c8d9d41b08b96d2b0592d1d7c00e00000000ffffffff48245fa209bbdcbe9009a5a38eb871972ae1dcf6ffe665095fe4f142682401690c00000000ffffffff6b288db05995de2a600225624e9e3e9f59eadb8f3a9654de144d953df62a12831300000000ffffffff5354734d187ee87102beea3c59b707337281e269e869657936ef271cb40a01b90000000000ffffffff0193d12d02000000002200200334174ebe7b38f5c20d4dfb5136c72b2383e2f4fc26421e94b16f81e191cb3202473044022100c532ad6675bdd13b3c8dd3202d6d576bfb9db739f2b8f3895e5358c075c1273f021f4b201148c88cc8208f32151490e3b236c473553ffd6fe3e7a4d14fe3291b1f012103a81f3fe200eb9637c2f553ce1daad935d1cd62c3f2a0bd030817ee812395332a02483045022100d374b7f988b8aeaf8a971ff6358373e3aa015e5ab9c8a325bfa837c36ffef6360220615ce57849e5499592161f404493b6db197021e280c34d0cf30fd825d3bbddae012103a81f3fe200eb9637c2f553ce1daad935d1cd62c3f2a0bd030817ee812395332a02473044022046cc9dc40d51a6978edcb15b6b404618691f3ff0255f1afa431a973d7246c8c3022027e64ec89d09862ef8485f54352728344ca871b4f5bc536f019db07023f8d3bf012103a81f3fe200eb9637c2f553ce1daad935d1cd62c3f2a0bd030817ee812395332a02473044022037dc56be5a40c2f7f13da618aa56745c8ef6f60ae70e926bf6af55b504179dd902200227ab4ba869dd658f7956161c0d3d5df2fa6255ea064839588d9a42636b15c6012103a81f3fe200eb9637c2f553ce1daad935d1cd62c3f2a0bd030817ee812395332a02473044022033c0b3daac006e07e7537e7f821ad60ae363a1c7cf01ae4dcd1cba1f1409cadd02200844428654b8ed4f6e6e3cab7d7613666eaf667f8d8b1e0e7c7ac921838137a3012103a81f3fe200eb9637c2f553ce1daad935d1cd62c3f2a0bd030817ee812395332a00000000",
  "txid": "791bb9d16f7ab05f70a116d18eaf3552faf77b9d5688699a480261424b4f7e53",
  "hash": "f9610c875ed2084ea51e8c87077f4eb2d6bfc9c40a6a4ab011046b59a1a35a04",
  "size": 796,
  "vsize": 393,
  "weight": 1570,
  "version": 2,
  "locktime": 0,
  "vin": [
    {
      "txid": "9200a38af575c376f8d53a79768cba73cbd0b22f2252a2953648a9036d13fd83",
      "vout": 6,
      "scriptSig": { "asm": "", "hex": "" },
      "txinwitness": [
        "3044022100c532ad6675bdd13b3c8dd3202d6d576bfb9db739f2b8f3895e5358c075c1273f021f4b201148c88cc8208f32151490e3b236c473553ffd6fe3e7a4d14fe3291b1f01",
        "03a81f3fe200eb9637c2f553ce1daad935d1cd62c3f2a0bd030817ee812395332a"
      ],
      "sequence": 4294967295
    },
    {
      "txid": "c0d7d192052b6db9081bd4d9c841431e1e0d2ced894a7f4c0456329e79440e5a",
      "vout": 14,
      "scriptSig": { "asm": "", "hex": "" },
      "txinwitness": [
        "3045022100d374b7f988b8aeaf8a971ff6358373e3aa015e5ab9c8a325bfa837c36ffef6360220615ce57849e5499592161f404493b6db197021e280c34d0cf30fd825d3bbddae01",
        "03a81f3fe200eb9637c2f553ce1daad935d1cd62c3f2a0bd030817ee812395332a"
      ],
      "sequence": 4294967295
    },
    {
      "txid": "6901246842f1e45f0965e6fff6dce12a9771b88ea3a50990bedcbb09a25f2448",
      "vout": 12,
      "scriptSig": { "asm": "", "hex": "" },
      "txinwitness": [
        "3044022046cc9dc40d51a6978edcb15b6b404618691f3ff0255f1afa431a973d7246c8c3022027e64ec89d09862ef8485f54352728344ca871b4f5bc536f019db07023f8d3bf01",
        "03a81f3fe200eb9637c2f553ce1daad935d1cd62c3f2a0bd030817ee812395332a"
      ],
      "sequence": 4294967295
    },
    {
      "txid": "83122af63d954d14de54963a8fdbea599f3e9e4e622502602ade9559b08d286b",
      "vout": 19,
      "scriptSig": { "asm": "", "hex": "" },
      "txinwitness": [
        "3044022037dc56be5a40c2f7f13da618aa56745c8ef6f60ae70e926bf6af55b504179dd902200227ab4ba869dd658f7956161c0d3d5df2fa6255ea064839588d9a42636b15c601",
        "03a81f3fe200eb9637c2f553ce1daad935d1cd62c3f2a0bd030817ee812395332a"
      ],
      "sequence": 4294967295
    },
    {
      "txid": "b9010ab41c27ef36796569e869e281723307b7593ceabe0271e87e184d735453",
      "vout": 0,
      "scriptSig": { "asm": "", "hex": "" },
      "txinwitness": [
        "3044022033c0b3daac006e07e7537e7f821ad60ae363a1c7cf01ae4dcd1cba1f1409cadd02200844428654b8ed4f6e6e3cab7d7613666eaf667f8d8b1e0e7c7ac921838137a301",
        "03a81f3fe200eb9637c2f553ce1daad935d1cd62c3f2a0bd030817ee812395332a"
      ],
      "sequence": 4294967295
    }
  ],
  "vout": [
    {
      "value": 0.36557203,
      "n": 0,
      "scriptPubKey": {
        "asm": "0 0334174ebe7b38f5c20d4dfb5136c72b2383e2f4fc26421e94b16f81e191cb32",
        "hex": "00200334174ebe7b38f5c20d4dfb5136c72b2383e2f4fc26421e94b16f81e191cb32",
        "type": "witness_v0_scripthash"
      }
    }
  ]
}
