{
  "hex": "02000000000103569ef6089afd16181b4c11c598adf075a25a46a02631e4bac94110a899949d010200000000ffffffff767d1098665eaebe4ddf4739c7d477ef8906f680bce8c68792a870927cb9c3310100000000ffffffff80f1176ab8a3c91b3493ad8fa4e33890917a5a0e455d4bb32f493789f799145b0000000000ffffffff03b050010000000000160014daaae0d3de9d8fdee31661e61aea828b59be786400000000000000000c6a0a4920616d2072696368218077060000000000160014264e3737a5ebac54f213e06c93aed0c020ba73bb0247304402202682b12bd1df24a039ec085b7e8197f1c0e2734ac828c88ef284dc70140134e00220787728d5d0d90f6b8a84621173f521e45f0353322249eb4b788f58a6ce826e20012103f08a94307716b27e6522c98e0b40211dc90792f135bd311effc68818d136f2150248304502210081e5b9d681f41451d1ceca624e754f30d32156559333b2f6ca00843ef24349f3022024ddb4e825fb35e63e868572eb83d594a902b98f26282e5f0a9e2d809787add2012103f08a94307716b27e6522c98e0b40211dc90792f135bd311effc68818d136f21502473044022036944c409c6db78b857630e562decb9fea6cb8d7eec4314cf1bb7c65f86f2d9e0220061eab418c32cc5e41508eb6e84c4407727674c983bec315db4e3434384fa3e8012103f08a94307716b27e6522c98e0b40211dc90792f135bd311effc68818d136f21500000000",
  "txid": "6d1dde76b9aedaf2717a062602e38c1978482e50dd123287280a98910c1e318e",
  "hash": "d2637ca277ee3827bffb11399d5b76c96f46064127ba45cc01526d5e66d5901a",
  "size": 540,
  "vsize": 297,
  "weight": 1188,
  "version": 2,
  "locktime": 0,
  "vin": [
    {
      "txid": "019d9499a81041c9bae43126a0465aa275f0ad98c5114c1b1816fd9a08f69e56",
      "vout": 2,
      "scriptSig": { "asm": "", "hex": "" },
      "txinwitness": [
        "304402202682b12bd1df24a039ec085b7e8197f1c0e2734ac828c88ef284dc70140134e00220787728d5d0d90f6b8a84621173f521e45f0353322249eb4b788f58a6ce826e2001",
        "03f08a94307716b27e6522c98e0b40211dc90792f135bd311effc68818d136f215"
      ],
      "sequence": 4294967295
    },
    {
      "txid": "31c3b97c9270a89287c6e8bc80f60689ef77d4c73947df4dbeae5e6698107d76",
      "vout": 1,
      "scriptSig": { "asm": "", "hex": "" },
      "txinwitness": [
        "304502210081e5b9d681f41451d1ceca624e754f30d32156559333b2f6ca00843ef24349f3022024ddb4e825fb35e63e868572eb83d594a902b98f26282e5f0a9e2d809787add201",
        "03f08a94307716b27e6522c98e0b40211dc90792f135bd311effc68818d136f215"
      ],
      "sequence": 4294967295
    },
    {
      "txid": "5b1499f78937492fb34b5d450e5a7a919038e3a48fad93341bc9a3b86a17f180",
      "vout": 0,
      "scriptSig": { "asm": "", "hex": "" },
      "txinwitness": [
        "3044022036944c409c6db78b857630e562decb9fea6cb8d7eec4314cf1bb7c65f86f2d9e0220061eab418c32cc5e41508eb6e84c4407727674c983bec315db4e3434384fa3e801",
        "03f08a94307716b27e6522c98e0b40211dc90792f135bd311effc68818d136f215"
      ],
      "sequence": 4294967295
    }
  ],
  "vout": [
    {
      "value": 0.00086192,
      "n": 0,
      "scriptPubKey": {
        "asm": "0 daaae0d3de9d8fdee31661e61aea828b59be7864",
        "hex": "0014daaae0d3de9d8fdee31661e61aea828b59be7864",
        "type": "witness_v0_keyhash"
      }
    },
    {
      "value": 0,
      "n": 1,
      "scriptPubKey": {
        "asm": "OP_RETURN 4920616d207269636821",
        "hex": "6a0a4920616d207269636821",
        "type": "nulldata"
      }
    },
    {
      "value": 0.00423808,
      "n": 2,
      "scriptPubKey": {
        "asm": "0 264e3737a5ebac54f213e06c93aed0c020ba73bb",
        "hex": "0014264e3737a5ebac54f213e06c93aed0c020ba73bb",
        "type": "witness_v0_keyhash"
      }
    }
  ]
}
