{
  "hex": "020000000001027bc0bba407bc67178f100e352bf6e047fae4cbf960d783586cb5e430b3b700e70000000000feffffff7bc0bba407bc67178f100e352bf6e047fae4cbf960d783586cb5e430b3b700e70100000000feffffff01b4ba0e0000000000160014173fd310e9db2c7e9550ce0f03f1e6c01d833aa90140134896c42cd95680b048845847c8054756861ffab7d4abab72f6508d67d1ec0c590287ec2161dd7884983286e1cd56ce65c08a24ee0476ede92678a93b1b180c03407b5d614a4610bf9196775791fcc589597ca066dcd10048e004cd4c7341bb4bb90cee4705192f3f7db524e8067a5222c7f09baf29ef6b805b8327ecd1e5ab83ca2220f5b059b9a72298ccbefff59d9b943f7e0fc91d8a3b944a95e7b6390cc99eb5f4ac41c0d9dfdf0fe3c83e9870095d67fff59a8056dad28c6dfb944bb71cf64b90ace9a7776b22a1185fb2dc9524f6b178e2693189bf01655d7f38f043923668dc5af45bffd30a00",
  "txid": "37777defed8717c581b4c0509329550e344bdc14ac38f71fc050096887e535c8",
  "version": 2,
  "locktime": 0,
  "vin": [
    {
      "vout": 0,
      "scriptSig": {
        "asm": "",
        "hex": ""
      },
      "sequence": 4294967294,
      "txid": "e700b7b330e4b56c5883d760f9cbe4fa47e0f62b350e108f1767bc07a4bbc07b",
      "txinwitness": [
        "134896c42cd95680b048845847c8054756861ffab7d4abab72f6508d67d1ec0c590287ec2161dd7884983286e1cd56ce65c08a24ee0476ede92678a93b1b180c"
      ]
    },
    {
      "scriptSig": {"asm": "", "hex": ""},
      "sequence": 4294967294,
      "txid": "c5d224963832fc0b9a597251c2342a17b25e481a88cc9119008e8f8296652697",
      "vout": 2,
      "txinwitness": [
        "3a4b32aef0e6ecc62d185594baf4df186c6d48ec15e72515bf81c1bcc1f04c758f4d54486bc2e7c280e649761d9084dbd2e7cdfb20708a7f8d0f82e5277bba2b",
        "20888269c4f0b7f6fe95d0cba364e2b1b879d9b00735d19cfab4b8d87096ce2b3cac00634d0802000000000000000000000000000000000000000000000000000000000000000000000000000000000000000000000000000000000000000000000000000000000000000000000000000000000000000000000000000000000000000000000000000000000000000000000000000000000000000000000000000000000000000000000000000000000000000000000000000000000000000000000000000000000000000000000000000000000000000000000000000000000000000000000000000000000000000000000000000000000000000000000000000000000000000000000000000000000000000000000000000000000000000000000000000000000000000000000000000000000000000000000000000000000000000000000000000000000000000000000000000000000000000000000000000000000000000000000000000000000000000000000000000000000000000000000000000000000000000000000000000000000000000000000000000000000000000000000000000000000000000000000000000000000000000000000000000000000000000000000000000000000000000000000000000000000000000000000000000000000000000000000000000000000000000000000000000000000000000000000000000000000000000000000000000000000000000000000000000000000000000000000000000000004c50000000000000000000000000000000000000000000000000000000000000000000000000000000000000000000000000000000000000000000000000000000000000000000000000000000000000000068",
        "c0888269c4f0b7f6fe95d0cba364e2b1b879d9b00735d19cfab4b8d87096ce2b3c"
      ]
    }
  ],
  "vout": [
    {
      "value": 0.36557203,
      "n": 0,
      "scriptPubKey": {
        "asm": "0 daaae0d3de9d8fdee31661e61aea828b59be7864",
        "hex": "0014daaae0d3de9d8fdee31661e61aea828b59be7864",
        "type": "witness_v0_keyhash"
      }
    }
  ]
}
