{
  "hex": "0200000000010197266596828f8e001991cc881a485eb2172a34c25172599a0bfc32389624d2c50200000000ffffffff031027000000000000160014daaae0d3de9d8fdee31661e61aea828b59be78640000000000000000166a1467ed0bcc4e1256bc2ce87d22e190d63a120114bfdf24010000000000160014d1ec69828aedc54637583e059643aee3f862cd2302473044022047ecada1e409279fe2b714db2b126714b88a67032b1bd1247e935c4b7b71ff50022055a480a97d2dbdd8cf8f7585296e62b538fc735b61d672b4565b9a1df4a8225e0121035ce366bfd01fde742562f7cc5e6ae125ec2bac862d3c3a11d2d70b1b3baa9ae000000000",
  "txid": "847139aa65aa4a5ee896375951cbf7417cfc8a4d6f277ec11f40cd87319f04aa",
  "hash": "79988813059cd0c82f9291299d4d6324a3da56c8a6507797c0f2ebf0a13cee56",
  "size": 253,
  "vsize": 172,
  "weight": 685,
  "version": 2,
  "locktime": 0,
  "vin": [
    {
      "txid": "c5d224963832fc0b9a597251c2342a17b25e481a88cc9119008e8f8296652697",
      "vout": 2,
      "scriptSig": { "asm": "", "hex": "" },
      "txinwitness": [
        "3044022047ecada1e409279fe2b714db2b126714b88a67032b1bd1247e935c4b7b71ff50022055a480a97d2dbdd8cf8f7585296e62b538fc735b61d672b4565b9a1df4a8225e01",
        "035ce366bfd01fde742562f7cc5e6ae125ec2bac862d3c3a11d2d70b1b3baa9ae0"
      ],
      "sequence": 4294967295
    }
  ],
  "vout": [
    {
      "value": 0.0001,
      "n": 0,
      "scriptPubKey": {
        "asm": "0 daaae0d3de9d8fdee31661e61aea828b59be7864",
        "hex": "0014daaae0d3de9d8fdee31661e61aea828b59be7864",
        "type": "witness_v0_keyhash"
      }
    },
    {
      "value": 0,
      "n": 1,
      "scriptPubKey": {
        "asm": "OP_RETURN 67ed0bcc4e1256bc2ce87d22e190d63a120114bf",
        "hex": "6a1467ed0bcc4e1256bc2ce87d22e190d63a120114bf",
        "type": "nulldata"
      }
    },
    {
      "value": 0.00074975,
      "n": 2,
      "scriptPubKey": {
        "asm": "0 d1ec69828aedc54637583e059643aee3f862cd23",
        "hex": "0014d1ec69828aedc54637583e059643aee3f862cd23",
        "type": "witness_v0_keyhash"
      }
    }
  ]
}
