{
  "hex": "0200000000010167e857b252af502c3c140bd6d6a5b467b7a8badb46ccf1c06378e8f969e818360200000000ffffffff03622a000000000000160014daaae0d3de9d8fdee31661e61aea828b59be78640000000000000000186a16bf9686022c1cbe7d07d8e473b6f4e1bd91811cb60000010801000000000022512034439061ba7dede70080b475a2fb85b8b8803c2da7c4c9e48589042180954d82014045fae0a2b9fe7e076ca74a77565386a550ea1aed8ee30faa05dd2a7b0eeedb17de1ab8860bb381dbd18f2a179dc9ac5bee4c2d6dd62b791c3bded4aaa0f322c900000000",
  "txid": "8a2f9d30466d4f4fb245a918d5d7ad049d49719c3493e6495c88f969bae1c570",
  "hash": "12a8f7e7dc414b9fd4de5ff0a154a05709da0ca5a1f51a41be30827110bc0127",
  "size": 226,
  "vsize": 175,
  "weight": 700,
  "version": 2,
  "locktime": 0,
  "vin": [
    {
      "txid": "3618e869f9e87863c0f1cc46dbbaa8b767b4a5d6d60b143c2c50af52b257e867",
      "vout": 2,
      "scriptSig": { "asm": "", "hex": "" },
      "txinwitness": [
        "45fae0a2b9fe7e076ca74a77565386a550ea1aed8ee30faa05dd2a7b0eeedb17de1ab8860bb381dbd18f2a179dc9ac5bee4c2d6dd62b791c3bded4aaa0f322c9"
      ],
      "sequence": 4294967295
    }
  ],
  "vout": [
    {
      "value": 0.0001085,
      "n": 0,
      "scriptPubKey": {
        "asm": "0 daaae0d3de9d8fdee31661e61aea828b59be7864",
        "hex": "0014daaae0d3de9d8fdee31661e61aea828b59be7864",
        "type": "witness_v0_keyhash"
      }
    },
    {
      "value": 0,
      "n": 1,
      "scriptPubKey": {
        "asm": "OP_RETURN bf9686022c1cbe7d07d8e473b6f4e1bd91811cb60000",
        "hex": "6a16bf9686022c1cbe7d07d8e473b6f4e1bd91811cb60000",
        "type": "nulldata"
      }
    },
    {
      "value": 0.00067585,
      "n": 2,
      "scriptPubKey": {
        "asm": "1 34439061ba7dede70080b475a2fb85b8b8803c2da7c4c9e48589042180954d82",
        "hex": "512034439061ba7dede70080b475a2fb85b8b8803c2da7c4c9e48589042180954d82",
        "type": "witness_v1_taproot"
      }
    }
  ]
}
