{
  "hex": "0100000000010792fe0c144838ef41b22aa655771547acca8ee913efafb8b3eb8cbd182a30caef0000000000ffffffffefceb531b2f8db989f7f7cfba458a434e313aa84ea7070713e391d0ceb05c03d0000000000ffffffffd7e5f6f569fa1b52bdab189ca836e8c1d4409c934d34ee821bb2f325a8acc3740000000000ffffffffbfc5c2e4988acfa851d68880b4869621c3be2132c5993cab4a1f580eef4c26870000000000ffffffff7400bc3a0f71a60a4241c8ffc2dbe860a8791d34e14a62963df03d973349f25a0000000000ffffffff92fe0c144838ef41b22aa655771547acca8ee913efafb8b3eb8cbd182a30caef0200000000ffffffff30a5ad76ee984c7e2da0b44e2b7153f4885201cfba5f3ed1b226c08a935557b80000000000ffffffff036408000000000000160014daaae0d3de9d8fdee31661e61aea828b59be7864e02e0000000000001600140c1bfb7d38dff0946fdec5626d51ad58d7e9bc54d1b9530200000000160014daaae0d3de9d8fdee31661e61aea828b59be786402483045022100febd70794057e61b83e2aac09302d89910e3b79a031b084b4f148c5529a189c602207c60a3834eeb7dd989c108c735bc17e0d53ce77a016e8c0890dbc1e5dc573b6c012102fad3348b7c7d73e85a7cfe53af42b535b750419efc55c36c807f38dd0ba06edc02483045022100e2a7db33480b4623c191be348525f48d2c6c7fd8c7a976ab87d556a3d9f1bf0c022060c51f38542f13c332c114aaaa2093728343a95506930d5c810bddde4a312153012102fad3348b7c7d73e85a7cfe53af42b535b750419efc55c36c807f38dd0ba06edc0247304402203cebf1856c0af2c5c2d8ece435418e999e700507ea647bb5cf109949b337d57302206753f01b7c81b731046b18aff7589e8471524aefe6349a346870bc09ca1de8d7012102fad3348b7c7d73e85a7cfe53af42b535b750419efc55c36c807f38dd0ba06edc02473044022053358333d728affa4a95e23f66599f66c9401e4f802bbb13f014acfae28217680220793c58356267a7c0052889a7da83d37eb01306277496b3e044e4a5b4abdc4461012102fad3348b7c7d73e85a7cfe53af42b535b750419efc55c36c807f38dd0ba06edc02473044022021552ae9009183979b534dedb251d555aacaa68f140c016ebfb1e6787a35c5e00220309df76bd511124352c3955f92d0db1cbab6504fe5649b0585b0c7400403570b012102fad3348b7c7d73e85a7cfe53af42b535b750419efc55c36c807f38dd0ba06edc02483045022100fabcbdbccc0d2468af60743fa817159fdd09a3f97193f119780ee95ab4014c9202205f728cb2dea3a9272651d09c23822649b38c160d0cc222613cb75db1bcde5e18012102fad3348b7c7d73e85a7cfe53af42b535b750419efc55c36c807f38dd0ba06edc024830450221008535da95650bcd786495f3fdbf19103fc0d6408d002d60212bb61fbc7bf6894502202ba5e5e32989ac3ef293f556196c2633e6e73750e3253ed474e366c5649ac1dd012102fad3348b7c7d73e85a7cfe53af42b535b750419efc55c36c807f38dd0ba06edc00000000",
  "txid": "030cd813443f7b70cc6d8a544d320c6d8465e4528fc0f3410b599dc0b26753a0",
  "hash": "a9ae1d437cc910eeaf82b566102db68a9180c21f5f23f4fcff386c59c45359c1",
  "size": 1145,
  "vsize": 579,
  "weight": 2315,
  "version": 1,
  "locktime": 0,
  "vin": [
    {
      "txid": "efca302a18bd8cebb3b8afef13e98ecaac47157755a62ab241ef3848140cfe92",
      "vout": 0,
      "scriptSig": { "asm": "", "hex": "" },
      "txinwitness": [
        "3045022100febd70794057e61b83e2aac09302d89910e3b79a031b084b4f148c5529a189c602207c60a3834eeb7dd989c108c735bc17e0d53ce77a016e8c0890dbc1e5dc573b6c01",
        "02fad3348b7c7d73e85a7cfe53af42b535b750419efc55c36c807f38dd0ba06edc"
      ],
      "sequence": 4294967295
    },
    {
      "txid": "3dc005eb0c1d393e717070ea84aa13e334a458a4fb7c7f9f98dbf8b231b5ceef",
      "vout": 0,
      "scriptSig": { "asm": "", "hex": "" },
      "txinwitness": [
        "3045022100e2a7db33480b4623c191be348525f48d2c6c7fd8c7a976ab87d556a3d9f1bf0c022060c51f38542f13c332c114aaaa2093728343a95506930d5c810bddde4a31215301",
        "02fad3348b7c7d73e85a7cfe53af42b535b750419efc55c36c807f38dd0ba06edc"
      ],
      "sequence": 4294967295
    },
    {
      "txid": "74c3aca825f3b21b82ee344d939c40d4c1e836a89c18abbd521bfa69f5f6e5d7",
      "vout": 0,
      "scriptSig": { "asm": "", "hex": "" },
      "txinwitness": [
        "304402203cebf1856c0af2c5c2d8ece435418e999e700507ea647bb5cf109949b337d57302206753f01b7c81b731046b18aff7589e8471524aefe6349a346870bc09ca1de8d701",
        "02fad3348b7c7d73e85a7cfe53af42b535b750419efc55c36c807f38dd0ba06edc"
      ],
      "sequence": 4294967295
    },
    {
      "txid": "87264cef0e581f4aab3c99c53221bec3219686b48088d651a8cf8a98e4c2c5bf",
      "vout": 0,
      "scriptSig": { "asm": "", "hex": "" },
      "txinwitness": [
        "3044022053358333d728affa4a95e23f66599f66c9401e4f802bbb13f014acfae28217680220793c58356267a7c0052889a7da83d37eb01306277496b3e044e4a5b4abdc446101",
        "02fad3348b7c7d73e85a7cfe53af42b535b750419efc55c36c807f38dd0ba06edc"
      ],
      "sequence": 4294967295
    },
    {
      "txid": "5af24933973df03d96624ae1341d79a860e8dbc2ffc841420aa6710f3abc0074",
      "vout": 0,
      "scriptSig": { "asm": "", "hex": "" },
      "txinwitness": [
        "3044022021552ae9009183979b534dedb251d555aacaa68f140c016ebfb1e6787a35c5e00220309df76bd511124352c3955f92d0db1cbab6504fe5649b0585b0c7400403570b01",
        "02fad3348b7c7d73e85a7cfe53af42b535b750419efc55c36c807f38dd0ba06edc"
      ],
      "sequence": 4294967295
    },
    {
      "txid": "efca302a18bd8cebb3b8afef13e98ecaac47157755a62ab241ef3848140cfe92",
      "vout": 2,
      "scriptSig": { "asm": "", "hex": "" },
      "txinwitness": [
        "3045022100fabcbdbccc0d2468af60743fa817159fdd09a3f97193f119780ee95ab4014c9202205f728cb2dea3a9272651d09c23822649b38c160d0cc222613cb75db1bcde5e1801",
        "02fad3348b7c7d73e85a7cfe53af42b535b750419efc55c36c807f38dd0ba06edc"
      ],
      "sequence": 4294967295
    },
    {
      "txid": "b85755938ac026b2d13e5fbacf015288f453712b4eb4a02d7e4c98ee76ada530",
      "vout": 0,
      "scriptSig": { "asm": "", "hex": "" },
      "txinwitness": [
        "30450221008535da95650bcd786495f3fdbf19103fc0d6408d002d60212bb61fbc7bf6894502202ba5e5e32989ac3ef293f556196c2633e6e73750e3253ed474e366c5649ac1dd01",
        "02fad3348b7c7d73e85a7cfe53af42b535b750419efc55c36c807f38dd0ba06edc"
      ],
      "sequence": 4294967295
    }
  ],
  "vout": [
    {
      "value": 0.00002148,
      "n": 0,
      "scriptPubKey": {
        "asm": "0 daaae0d3de9d8fdee31661e61aea828b59be7864",
        "hex": "0014daaae0d3de9d8fdee31661e61aea828b59be7864",
        "type": "witness_v0_keyhash"
      }
    },
    {
      "value": 0.00012,
      "n": 1,
      "scriptPubKey": {
        "asm": "0 0c1bfb7d38dff0946fdec5626d51ad58d7e9bc54",
        "hex": "00140c1bfb7d38dff0946fdec5626d51ad58d7e9bc54",
        "type": "witness_v0_keyhash"
      }
    },
    {
      "value": 0.39041489,
      "n": 2,
      "scriptPubKey": {
        "asm": "0 daaae0d3de9d8fdee31661e61aea828b59be7864",
        "hex": "0014daaae0d3de9d8fdee31661e61aea828b59be7864",
        "type": "witness_v0_keyhash"
      }
    }
  ]
}
